{
  "contractName": "Bihu",
  "abi": [
    {
      "constant": true,
      "inputs": [],
      "name": "name",
      "outputs": [
        {
          "name": "",
          "type": "string"
        }
      ],
      "payable": false,
      "stateMutability": "view",
      "type": "function"
    },
    {
      "constant": true,
      "inputs": [
        {
          "name": "",
          "type": "uint256"
        }
      ],
      "name": "questions",
      "outputs": [
        {
          "name": "id",
          "type": "uint256"
        },
        {
          "name": "question",
          "type": "string"
        },
        {
          "name": "label",
          "type": "string"
        },
        {
          "name": "ansCount",
          "type": "uint256"
        },
        {
          "name": "author",
          "type": "address"
        }
      ],
      "payable": false,
      "stateMutability": "view",
      "type": "function"
    },
    {
      "constant": true,
      "inputs": [],
      "name": "postCountQuestion",
      "outputs": [
        {
          "name": "",
          "type": "uint256"
        }
      ],
      "payable": false,
      "stateMutability": "view",
      "type": "function"
    },
    {
      "inputs": [],
      "payable": false,
      "stateMutability": "nonpayable",
      "type": "constructor"
    },
    {
      "anonymous": false,
      "inputs": [
        {
          "indexed": false,
          "name": "id",
          "type": "uint256"
        },
        {
          "indexed": false,
          "name": "question",
          "type": "string"
        },
        {
          "indexed": false,
          "name": "label",
          "type": "string"
        },
        {
          "indexed": false,
          "name": "author",
          "type": "address"
        }
      ],
      "name": "QuestionCreated",
      "type": "event"
    },
    {
      "anonymous": false,
      "inputs": [
        {
          "indexed": false,
          "name": "id",
          "type": "uint256"
        },
        {
          "indexed": false,
          "name": "answer",
          "type": "string"
        },
        {
          "indexed": false,
          "name": "author",
          "type": "address"
        }
      ],
      "name": "AnswerCreated",
      "type": "event"
    },
    {
      "anonymous": false,
      "inputs": [
        {
          "indexed": false,
          "name": "id",
          "type": "uint256"
        },
        {
          "indexed": false,
          "name": "tipAmount",
          "type": "uint256"
        },
        {
          "indexed": false,
          "name": "author",
          "type": "address"
        }
      ],
      "name": "AnswerTipped",
      "type": "event"
    },
    {
      "constant": false,
      "inputs": [
        {
          "name": "_question",
          "type": "string"
        },
        {
          "name": "_label",
          "type": "string"
        }
      ],
      "name": "createQuestion",
      "outputs": [],
      "payable": false,
      "stateMutability": "nonpayable",
      "type": "function"
    },
    {
      "constant": false,
      "inputs": [
        {
          "name": "_id",
          "type": "uint256"
        },
        {
          "name": "_answer",
          "type": "string"
        }
      ],
      "name": "createAnswer",
      "outputs": [],
      "payable": false,
      "stateMutability": "nonpayable",
      "type": "function"
    },
    {
      "constant": false,
      "inputs": [
        {
          "name": "_id",
          "type": "uint256"
        },
        {
          "name": "_answerId",
          "type": "uint256"
        }
      ],
      "name": "tipAnswer",
      "outputs": [],
      "payable": true,
      "stateMutability": "payable",
      "type": "function"
    },
    {
      "constant": true,
      "inputs": [
        {
          "name": "_id",
          "type": "uint256"
        },
        {
          "name": "_ans",
          "type": "uint256"
        }
      ],
      "name": "getAnswer",
      "outputs": [
        {
          "name": "",
          "type": "uint256"
        },
        {
          "name": "",
          "type": "string"
        },
        {
          "name": "",
          "type": "uint256"
        },
        {
          "name": "",
          "type": "address"
        }
      ],
      "payable": false,
      "stateMutability": "view",
      "type": "function"
    }
  ],
  "bytecode": "0x60806040523480156200001157600080fd5b506040805190810160405280600481526020017f4269687500000000000000000000000000000000000000000000000000000000815250600090805190602001906200005f92919062000066565b5062000115565b828054600181600116156101000203166002900490600052602060002090601f016020900481019282601f10620000a957805160ff1916838001178555620000da565b82800160010185558215620000da579182015b82811115620000d9578251825591602001919060010190620000bc565b5b509050620000e99190620000ed565b5090565b6200011291905b808211156200010e576000816000905550600101620000f4565b5090565b90565b61121980620001256000396000f3fe608060405260043610610083576000357c0100000000000000000000000000000000000000000000000000000000900463ffffffff16806306fdde031461008857806331b1b978146101185780634fec390c14610279578063785285111461034b578063a088e5cf14610383578063a22c1bc9146103ae578063dffc8b2e146104ad575b600080fd5b34801561009457600080fd5b5061009d61060c565b6040518080602001828103825283818151815260200191508051906020019080838360005b838110156100dd5780820151818401526020810190506100c2565b50505050905090810190601f16801561010a5780820380516001836020036101000a031916815260200191505b509250505060405180910390f35b34801561012457600080fd5b506101516004803603602081101561013b57600080fd5b81019080803590602001909291905050506106aa565b6040518086815260200180602001806020018581526020018473ffffffffffffffffffffffffffffffffffffffff1673ffffffffffffffffffffffffffffffffffffffff168152602001838103835287818151815260200191508051906020019080838360005b838110156101d35780820151818401526020810190506101b8565b50505050905090810190601f1680156102005780820380516001836020036101000a031916815260200191505b50838103825286818151815260200191508051906020019080838360005b8381101561023957808201518184015260208101905061021e565b50505050905090810190601f1680156102665780820380516001836020036101000a031916815260200191505b5097505050505050505060405180910390f35b34801561028557600080fd5b506103496004803603604081101561029c57600080fd5b8101908080359060200190929190803590602001906401000000008111156102c357600080fd5b8201836020820111156102d557600080fd5b803590602001918460018302840111640100000000831117156102f757600080fd5b91908080601f016020809104026020016040519081016040528093929190818152602001838380828437600081840152601f19601f820116905080830192505050505050509192919290505050610830565b005b6103816004803603604081101561036157600080fd5b810190808035906020019092919080359060200190929190505050610a37565b005b34801561038f57600080fd5b50610398610d1f565b6040518082815260200191505060405180910390f35b3480156103ba57600080fd5b506103f1600480360360408110156103d157600080fd5b810190808035906020019092919080359060200190929190505050610d25565b60405180858152602001806020018481526020018373ffffffffffffffffffffffffffffffffffffffff1673ffffffffffffffffffffffffffffffffffffffff168152602001828103825285818151815260200191508051906020019080838360005b8381101561046f578082015181840152602081019050610454565b50505050905090810190601f16801561049c5780820380516001836020036101000a031916815260200191505b509550505050505060405180910390f35b3480156104b957600080fd5b5061060a600480360360408110156104d057600080fd5b81019080803590602001906401000000008111156104ed57600080fd5b8201836020820111156104ff57600080fd5b8035906020019184600183028401116401000000008311171561052157600080fd5b91908080601f016020809104026020016040519081016040528093929190818152602001838380828437600081840152601f19601f8201169050808301925050505050505091929192908035906020019064010000000081111561058457600080fd5b82018360208201111561059657600080fd5b803590602001918460018302840111640100000000831117156105b857600080fd5b91908080601f016020809104026020016040519081016040528093929190818152602001838380828437600081840152601f19601f820116905080830192505050505050509192919290505050610ea1565b005b60008054600181600116156101000203166002900480601f0160208091040260200160405190810160405280929190818152602001828054600181600116156101000203166002900480156106a25780601f10610677576101008083540402835291602001916106a2565b820191906000526020600020905b81548152906001019060200180831161068557829003601f168201915b505050505081565b6002602052806000526040600020600091509050806000015490806001018054600181600116156101000203166002900480601f01602080910402602001604051908101604052809291908181526020018280546001816001161561010002031660029004801561075c5780601f106107315761010080835404028352916020019161075c565b820191906000526020600020905b81548152906001019060200180831161073f57829003601f168201915b505050505090806002018054600181600116156101000203166002900480601f0160208091040260200160405190810160405280929190818152602001828054600181600116156101000203166002900480156107fa5780601f106107cf576101008083540402835291602001916107fa565b820191906000526020600020905b8154815290600101906020018083116107dd57829003601f168201915b5050505050908060030154908060050160009054906101000a900473ffffffffffffffffffffffffffffffffffffffff16905085565b6000815111151561084057600080fd5b60026000838152602001908152602001600020600301600081548092919060010191905055506080604051908101604052806001548152602001828152602001600081526020013373ffffffffffffffffffffffffffffffffffffffff1681525060026000848152602001908152602001600020600401600060026000868152602001908152602001600020600301548152602001908152602001600020600082015181600001556020820151816001019080519060200190610904929190611109565b506040820151816002015560608201518160030160006101000a81548173ffffffffffffffffffffffffffffffffffffffff021916908373ffffffffffffffffffffffffffffffffffffffff1602179055509050507f6796a1bde84f43d29cfbb992a27f9497318980a6a70fa80181987382193b7465600154823360405180848152602001806020018373ffffffffffffffffffffffffffffffffffffffff1673ffffffffffffffffffffffffffffffffffffffff168152602001828103825284818151815260200191508051906020019080838360005b838110156109f75780820151818401526020810190506109dc565b50505050905090810190601f168015610a245780820380516001836020036101000a031916815260200191505b5094505050505060405180910390a15050565b600082118015610a4957506001548211155b1515610a5457600080fd5b610a5c611189565b6002600084815260200190815260200160002060040160008381526020019081526020016000206080604051908101604052908160008201548152602001600182018054600181600116156101000203166002900480601f016020809104026020016040519081016040528092919081815260200182805460018160011615610100020316600290048015610b325780601f10610b0757610100808354040283529160200191610b32565b820191906000526020600020905b815481529060010190602001808311610b1557829003601f168201915b50505050508152602001600282015481526020016003820160009054906101000a900473ffffffffffffffffffffffffffffffffffffffff1673ffffffffffffffffffffffffffffffffffffffff1673ffffffffffffffffffffffffffffffffffffffff168152505090506000816060015190508073ffffffffffffffffffffffffffffffffffffffff166108fc349081150290604051600060405180830381858888f19350505050158015610bec573d6000803e3d6000fd5b503482604001510182604001818152505081600260008681526020019081526020016000206004016000858152602001908152602001600020600082015181600001556020820151816001019080519060200190610c4b929190611109565b506040820151816002015560608201518160030160006101000a81548173ffffffffffffffffffffffffffffffffffffffff021916908373ffffffffffffffffffffffffffffffffffffffff1602179055509050507f5b3e175b1d9c60d3436c23a08b3ee3b0a6fc42b286c3b10e698fcc978131e85e600154836040015183604051808481526020018381526020018273ffffffffffffffffffffffffffffffffffffffff1673ffffffffffffffffffffffffffffffffffffffff168152602001935050505060405180910390a150505050565b60015481565b60006060600080610d34611189565b6002600088815260200190815260200160002060040160008781526020019081526020016000206080604051908101604052908160008201548152602001600182018054600181600116156101000203166002900480601f016020809104026020016040519081016040528092919081815260200182805460018160011615610100020316600290048015610e0a5780601f10610ddf57610100808354040283529160200191610e0a565b820191906000526020600020905b815481529060010190602001808311610ded57829003601f168201915b50505050508152602001600282015481526020016003820160009054906101000a900473ffffffffffffffffffffffffffffffffffffffff1673ffffffffffffffffffffffffffffffffffffffff1673ffffffffffffffffffffffffffffffffffffffff16815250509050806000015181602001518260400151836060015182925080905094509450945094505092959194509250565b60008251118015610eb3575060008151115b1515610ebe57600080fd5b60016000815480929190600101919050555060a0604051908101604052806001548152602001838152602001828152602001600081526020013373ffffffffffffffffffffffffffffffffffffffff16815250600260006001548152602001908152602001600020600082015181600001556020820151816001019080519060200190610f4c929190611109565b506040820151816002019080519060200190610f69929190611109565b506060820151816003015560808201518160050160006101000a81548173ffffffffffffffffffffffffffffffffffffffff021916908373ffffffffffffffffffffffffffffffffffffffff1602179055509050507facfd8b3da98d6c443d6b8a0c64085662ebb89ffb781a15db3564dc494837afe86001548383336040518085815260200180602001806020018473ffffffffffffffffffffffffffffffffffffffff1673ffffffffffffffffffffffffffffffffffffffff168152602001838103835286818151815260200191508051906020019080838360005b83811015611061578082015181840152602081019050611046565b50505050905090810190601f16801561108e5780820380516001836020036101000a031916815260200191505b50838103825285818151815260200191508051906020019080838360005b838110156110c75780820151818401526020810190506110ac565b50505050905090810190601f1680156110f45780820380516001836020036101000a031916815260200191505b50965050505050505060405180910390a15050565b828054600181600116156101000203166002900490600052602060002090601f016020900481019282601f1061114a57805160ff1916838001178555611178565b82800160010185558215611178579182015b8281111561117757825182559160200191906001019061115c565b5b50905061118591906111c8565b5090565b608060405190810160405280600081526020016060815260200160008152602001600073ffffffffffffffffffffffffffffffffffffffff1681525090565b6111ea91905b808211156111e65760008160009055506001016111ce565b5090565b9056fea165627a7a7230582050f504ed2722b10f73565c3e7743c1a856ec927dca5bc3ff8e75f81facd5804f0029",
  "source": "pragma solidity ^0.5.0;\n\ncontract Bihu\n{\n    string public name; \n    uint public postCountQuestion; \n    mapping(uint => Question) public questions; \n\n    struct Question\n    {\n        uint id; \n        string question; \n        string label; \n        uint ansCount; \n        mapping(uint => Answer) answers; \n        address payable author; \n    }\n\n    struct Answer\n    {\n        uint id; \n        string answer;\n        uint tipAmount;\n        address payable author; \n    }\n\n    event QuestionCreated \n    (\n        uint id, \n        string question, \n        string label, \n        address payable author \n    );\n\n    event AnswerCreated \n    (\n        uint id, \n        string answer, \n        address payable author \n    );\n\n    event AnswerTipped(\n        uint id,\n        uint tipAmount,\n        address payable author\n    );\n/*\n    event SearchingCreated \n    (\n        string searching, \n        uint [] results \n    );*/\n\n\n\n    constructor() public \n    {\n        name = \"Bihu\";\n    }\n\n    function createQuestion(string memory _question, string memory _label) public \n    {\n        require(bytes(_question).length > 0 && bytes(_label).length > 0); \n        postCountQuestion++;\n        questions[postCountQuestion] = Question(postCountQuestion, _question, _label, 0, msg.sender); \n        emit QuestionCreated(postCountQuestion, _question, _label, msg.sender); \n    }\n\n    function createAnswer(uint _id, string memory _answer) public \n    {\n        require(bytes(_answer).length > 0); \n        questions[_id].ansCount++; \n        questions[_id].answers[questions[_id].ansCount] = Answer(postCountQuestion, _answer, 0, msg.sender); \n        emit AnswerCreated(postCountQuestion, _answer, msg.sender); \n    }\n    \n/*\n    function createSearching(string memory _searching) public \n    {\n        require(bytes(_searching).length > 0); \n        uint[] memory _searchingresult = new uint[](postCountQuestion+1); \n        for(uint i = 1; i <= postCountQuestion; i++)\n        {\n            if(stringMatching(questions[i].question, _searching) == true || stringMatching(questions[i].label, _searching) == true)\n            {\n                _searchingresult[i] = 1; \n            }\n        }\n        emit SearchingCreated(_searching, _searchingresult); \n    }*/\n\n    function tipAnswer(uint _id, uint _answerId) public payable {\n        require(_id > 0 && _id <= postCountQuestion);\n        Answer memory _answer = questions[_id].answers[_answerId];\n        address payable _author = _answer.author;\n        address(_author).transfer(msg.value);\n        _answer.tipAmount = _answer.tipAmount + msg.value;\n        questions[_id].answers[_answerId] = _answer;\n        emit AnswerTipped(postCountQuestion, _answer.tipAmount, _author);\n    }\n/*\n    function stringMatching(string memory str, string memory substr) pure private returns(bool) \n    {\n        bool res = false;\n        uint len_str = bytes(str).length;\n        uint len_substr = bytes(substr).length;\n        if(len_str < len_substr)\n        {\n            string memory tmp;\n            tmp = str;\n            str = substr;\n            substr = tmp;\n        }\n        bytes memory byte_str = bytes(str);\n        bytes memory byte_substr = bytes(substr);\n        for(uint i = 0; i < len_str; i++)\n        {\n            if(byte_str[i] == byte_substr[0])\n            {\n                for(uint j = 1; j < len_substr; j++)\n                {\n                    if(byte_str[i+j] != byte_substr[j])\n                    {\n                        break;\n                    }\n                    if(j == len_substr-1)\n                    {\n                        res = true;\n                    }\n                }\n            }\n            if(res == true)\n            {\n                break;\n            }\n        }\n        return res;\n    }*/\n\n    function getAnswer(uint _id, uint _ans) public view returns(uint, string memory, uint, address) \n    {\n        Answer memory _answer = questions[_id].answers[_ans];\n        return (_answer.id, _answer.answer, _answer.tipAmount, _answer.author);\n    }\n}\n",
  "sourcePath": "/home/jcy/Bihu/contracts/Bihu.sol",
  "compiler": {
    "name": "solc",
    "version": "0.5.0+commit.1d4f565a.Emscripten.clang"
  },
  "schemaVersion": "3.0.0",
  "updatedAt": "2022-01-07T10:23:14.150Z",
  "devdoc": {
    "methods": {}
  },
  "userdoc": {
    "methods": {}
  }
}